:020000040800F2
:100000007007002035020008F13F00080D37000896
:10001000ED3F0008C113000845470008000000003C
:10002000000000000000000000000000CD420008B9
:10003000451800080000000009410008814300083D
:100040004F0200084F0200084F0200084F0200084C
:100050004F0200084F020008491800084F0200082C
:100060004F02000855180008611800084F020008E8
:100070004F0200084F0200084F0200084F0200081C
:100080004F0200084F0200084F0200084F0200080C
:100090004F0200084F0200084F0200084F020008FC
:1000A0004F0200084F0200084F0200084F020008EC
:1000B0004F020008E14400084F0200084F02000808
:1000C0004F0200084F0200084F0200084F020008CC
:1000D0004F0200084F0200084F0200084F020008BC
:1000E0004F0200084F0200084F02000800F002F81B
:1000F00000F090F80AA090E8000C82448344AAF132
:100100000107DA4501D100F085F8AFF2090EBAE82F
:100110000F0013F0010F18BFFB1A43F0010318473B
:100120006059000080590000103A24BF78C878C197
:10013000FAD8520724BF30C830C144BF04680C60ED
:10014000704700000023002400250026103A28BF35
:1001500078C1FBD8520728BF30C148BF0B60704739
:100160006E2900F06581702900F0A782662905F0EC
:100170009083652905F08D83672905F08A836129BD
:1001800005F0898303681B0A28BF41F080016929B3
:1001900000F01281642900F00F81752900F00C81B4
:1001A0006F2900F03582782900F07382E92900F088
:1001B000CF81E42900F0CC81F52900F0C981EF2935
:1001C00000F03282F82900F072820368DB0928BF50
:1001D00041F08001632900F07387732900F078876C
:1001E000E32900F08387F32900F088870020704717
:1001F0001FB500F0D9FF04000020002105F0F6F83B
:10020000401C60600020002105F0DAF8E0601FBDAE
:1002100010B510BD00F09AFF1146FFF7E9FF04F09A
:10022000C3FC01F077F803B4FFF7F2FF03BC01F061
:10023000BFF800000948804709480047FEE7FEE78D
:10024000FEE7FEE7FEE7FEE7FEE7FEE7FEE7FEE786
:1002500004480549054A064B70470000F54300086D
:10026000ED000008700100207007002070030020DE
:10027000700300200FB41CB5084B06AA7B446946E6
:100280000090059800F0EDF804460020694600F063
:10029000FBF820461CBC5DF814FB000009020000BE
:1002A0004FF0000200B5134694469646203922BF0F
:1002B000A0E80C50A0E80C50B1F12001BFF4F7AF5A
:1002C000090728BFA0E80C5048BF0CC05DF804EB3C
:1002D000890028BF40F8042B08BF704748BF20F8AA
:1002E000022B11F0804F18BF00F8012B70477047A8
:1002F0007047704770B5044685690068C10601D52E
:10030000302600E02026C00707D070BDD4E90121C7
:1003100030469047206A401C20626D1EF6D570BDA5
:1003200070B5044685690078C00707D170BDD4E96F
:10033000012120209047206A401C20626D1EF6D5C6
:1003400070BD09684A0501D540B27047C905FCD5A2
:1003500000B2704709684A0501D5C0B27047C905A7
:10036000FCD580B2704770B50C460546012A05D011
:100370002878800600D5EA69002302E0012305E021
:100380005B1C934202D2E05C0028F9D1A869E61810
:10039000C01AA861286A184428622846FFF7AAFFF5
:1003A00004E0D5E9012114F8010B9047B442F8D3D9
:1003B0002846FFF7B5FF70BD2DE9F0410646002441
:1003C00010687529314616A510D0FFF7BAFF00282E
:1003D00002DA404213A507E031688A0701D512A569
:1003E00002E0490704D511A5012401E0FFF7B2FF9F
:1003F00000210A2206F1240709E0B0FBF2FCB0FB61
:10040000F2F302FB1C00303078541846491C0028D7
:10041000F3D123462A463046BDE8F04100F061BAE8
:10042000000000002D0000002B0000002000000054
:1004300011680268006A530501D508700AE0D30507
:1004400001D5088006E0130603D5C217C1E90002F2
:1004500000E008600120704701694A1C02610878C9
:10046000704700B58FB0CDE90131002105910549F4
:100470007944CDE903101146684600F029F90FB020
:1004800000BD0000E5FFFFFF0A6802F8010B0A60EB
:10049000704700002DE9FF5F15468A460446DFF8E5
:1004A000AC80F8440027D8E900103E46CDE90010A2
:1004B00010E03AF816106A4602A800F023FE411C2C
:1004C00007D02178890603D5E269391891420DD801
:1004D0000744761C2078800602D5E069B84205DD25
:1004E000AE42E6DB3AF816000028E2D1A069C01B54
:1004F000A0612046FFF7FEFED8E90010CDE900100C
:10050000002017E03AF818106A4602A800F0FAFD39
:10051000B0F1FF3F81460BD000250DF1080B05E03F
:10052000D4E901211BF8050090476D1C4D45F7D318
:1005300008F10100B0428046E4DB206A38442062C2
:100540002046FFF7EDFEBDE8FF9F0000F6530000D8
:100550002DE9F0418046D21D22F007020025D2E9A4
:100560000002F52915A614D0011E72F1000106DA69
:100570000023D0EB030063EB020211A608E0D8F8D9
:1005800000108B0701D50FA602E0490701D50EA682
:1005900001251146002408F1240704E000F05CF96D
:1005A00030323A55641C50EA0102F7D12B463246EC
:1005B00021464046BDE8F04100F093B9000000003C
:1005C0002D0000002B0000002000000030B40021AE
:1005D00000F1240408E002F00705D208303542EAB1
:1005E0004372DB086554491C52EA0305F3D10468E1
:1005F000002310A2250708D504F020040C4304D0E2
:10060000C46901230CA2641EC46130BC00F069B946
:1006100010B5044621461068FFF79CFE02462046AE
:10062000BDE810400023D1E7D21D22F00701D1E937
:100630000023CBE70000000030000000F0B40D46BE
:100640000188090502D5214C7C4402E01F4C7C4402
:100650000E34002100F1240608E002F00F07120911
:10066000E75D42EA03721B097754491C52EA03070B
:10067000F3D102780023120704D5702D06D009B1FA
:10068000022311342246F0BC00F02BB901231034B0
:10069000F8E770B504460D4621461068FFF75AFE8C
:1006A000024629462046BDE870400023C6E7D21D19
:1006B00022F00703D3E90023C0E70368126843F080
:1006C000200303600823C3610023B7E758520000EA
:1006D0002DE9F05F894604464FF0000ADFF874B157
:1006E000FB44C0F820A02046E1688847002874D069
:1006F000252806D0D4E901219047206A401C2062B9
:10070000F1E700265F462046E16888472028054635
:1007100007DB312D05D2781910F8200C08B10643FB
:10072000F1E7B00701D526F00406C4F81CA00027A5
:10073000C4F818A02A2D09D0284604F039FE38B391
:1007400004EB8708303DC8F8185019E059F8041B2D
:10075000204604EB87029161E1688847012F054636
:1007600018D1E069002820DA26F020061DE0D8F82C
:10077000180000EB800005EB40003038C8F8180086
:100780002046E1688847054604F012FE0028EED1B5
:10079000012F0AD02E2D08D12046E16888477F1C02
:1007A0000546022F46F02006C4DBA069002803DAC4
:1007B000404246F00106A061F00701D026F0100685
:1007C0006C2D0BD0682D09D04C2D39D06A2D35D029
:1007D000742D35D07A2D33D016E038E0E1682F46FD
:1007E00020468847B842054609D16C2F26D04FF4E1
:1007F0008060E168064320468847054604E06C2F88
:100800001AD04FF4807006430DB3A5F141001928AA
:1008100002D8203546F400664A462946204626601E
:100820004E46FFF79DFC80B101280BD0F61D26F047
:10083000070000F1080956E74020E4E78020D8E7E8
:100840000020D6E706F104094DE7284652E7206A62
:10085000BDE8F09FE851000030B5B0F10A0271F137
:1008600000034FEA900E4EEA817EB0EB0E0061EB82
:1008700091014FEA101E4EEA017E10EB0E0041EB93
:1008800011114FEA102E4EEA016E10EB0E0041EBF3
:1008900011214FEA104E4EEA014E10EB0E0041EBD3
:1008A0001141401841F100014FEAD00040EA417087
:1008B0004FEAD1014FEA810444EA907410EB8005BD
:1008C00044EB01046D1944EB0404521BA3414FF0A7
:1008D000000348BF0A3200D530BD401C41F1000181
:1008E00030BD2DE9F0470D4699469246044600F189
:1008F00024080168880604D5E06921F01001216010
:1009000000E00120A84201DD471B00E00027A169AB
:100910007A1902EB0900081AA0612078C00602D4F7
:100920002046FFF7E7FC002608E0D4E901211AF889
:1009300006009047206A401C761C20624E45F4DB7E
:100940002078C0060AD52046FFF7D4FC06E0D4E99B
:10095000012130209047206A401C2062381EA7F1F8
:100960000107F4DC07E0D4E9012118F805009047FD
:10097000206A401C2062281EA5F10105F3DC2046F8
:10098000FFF7CEFC2078000602D50220BDE8F087F4
:100990000120FBE72DE9FF4F0C461E464FF0FF37C5
:1009A0008BB0D2E90001DDF860800A908A46C1F37D
:1009B0000A5505B93D46002108464FF00000BAF13E
:1009C000000F00F4400005DA00EB80004FF4400116
:1009D00001EA50004FEA9059B9F1010F00DDB94624
:1009E0000A9850EA4A000ED044F61050A5F2FF359E
:1009F00045432F14B8F1000F1ED07542291E1EDD8D
:100A0000C9F100021CE0B8F1010F4FF0000001D065
:100A1000302103E0F24305E02154401CB042FBDBEF
:100A200030460022002121540B99C1F80880C1E909
:100A300000200FB0BDE8F08FBD1B6D1CDEE74A46FD
:100A400000DA694206A800F0F3FB06AB93E8070062
:100A500003AB83E8070050460A9904F0CDF88DE80F
:100A60000700A0F500501F3800900398002D0ADD04
:100A700042F21F014A460844002303A90390684636
:100A800004F036FB09E0A0F500504A461F38002369
:100A900003A90390684604F040FB8DE807000004BA
:100AA000000C03D04FF0FF30410800E01046B8F1D1
:100AB000000F03D00022009215461EE0751E05D4DB
:100AC000FFF7CAFE303262556D1EF9D5B3460122DA
:100AD000084302D000227F1C04E02078302801D196
:100AE00000227F1E002A099784D01DE0112D07DA0D
:100AF000FFF7B2FE303262556D1C50EA0102F5D1AB
:100B0000084302D00098C8B10EE00021681E05E03D
:100B1000235C625C63542254401E491C8142F7DB13
:100B2000AB46A81B401E0990002004F80B000B9850
:100B3000099AC0F80880C0E9002B7AE711264FF027
:100B4000000857E72DE9F04F88460446D21D22F0F1
:100B5000070191B0D1E90001CDE90A0104F014FCCC
:100B600002460B98C00F01D02D2007E020688107B6
:100B700001D52B2002E0202101EAC000032A0990C0
:100B800001D0072A05DB03464146204600F010FB52
:100B90000BE12078800601D5E06900E00620B8F17D
:100BA000650F814606D0B8F1660F18D0B8F1670F0F
:100BB00070D131E00020B9F1110F009001DB112359
:100BC00001E009F101030AAA01A90CA8FFF7E2FE5E
:100BD000DDE90C70002609F10105834647E001209C
:100BE0004B4600904FF000470AAA01A90CA8FFF756
:100BF000D1FEDDE90DB00C995D46002610B909F172
:100C000001000D18B9EB050003D4C0F1FF3609F15E
:100C10000105A5EB09002BE0B9F1010F01DA4FF056
:100C200001090020B9F1110F0090484601DD1123A0
:100C300000E003460AAA01A90CA8FFF7ABFEDDE914
:100C40000C704D4600268346207800070AD4AB4539
:100C500000DA5D4601A8012D04DD411911F8011CDF
:100C6000302907D04F4502DA17F1040F04DA0120CA
:100C700082460FE06D1EEEE7002F02DCED1B3E44C6
:100C800003E0781CA84200DD7D1CB81B00F1010ABE
:100C90004FF000472078000703D4AA4501DB4FF04E
:100CA000FF3A0021B7F1004F0DF143088DF84310D2
:100CB00024D002202B23002F01DA7F422D230A218A
:100CC000021EA0F1010000DC5FB197FBF1FC97FB75
:100CD000F1F201FB1C7C17460CF1300C08F801CD39
:100CE000EEE7A8F1010003702188090501D545212F
:100CF00000E06521A0F1010800F8011C09980FA986
:100D0000A1EB0807FF1D00B10120411901EBEA70BA
:100D1000A1693844081A401EA0612078C00602D498
:100D20002046FFF7E7FA099828B1D4E90121904756
:100D3000206A401C20622078C00622D52046FFF79A
:100D4000D9FA1EE0002E04DBB34502DD01A8805D68
:100D500000E03020D4E901219047206A401C206245
:100D6000761CAAF101005FEA000A0AD100F01CFA21
:100D7000C0680168405CD4E901219047206A401CAA
:100D80002062281EA5F10105DCDC07E0D4E9012181
:100D900018F8010B9047206A401C2062381EA7F10A
:100DA0000107F3DC2046FFF7BBFA032011B041E650
:100DB0002DE9F04F04460D46D21D22F0070089B000
:100DC000D0E900974846394604F0DEFA0246F80FAB
:100DD00001D02D2307E02068810701D52B2302E0F5
:100DE000202101EAC0038DF820300BB1012000E082
:100DF0000020032A824601D0072A04DB2946204628
:100E000000F0D6F93FE12078800601D40D2500E0FE
:100E1000E569C7F30A560D2D49DA00214FEA175B41
:100E200008464FF00000002F00F4400007DA00EB06
:100E300080004FF4400100EBD07001EA60008115A2
:100E4000012901DD4FF0FF3100224FEA850CBCF192
:100E5000180F06D31346ACF118004FF08052C24071
:100E600003E04FF4801323FA0CF30CF10C0CBCF1EB
:100E7000200F04D3ACF1200C09FA0CF001E007FAC2
:100E80000CF000294FF0004801DD18B90FE00ED139
:100E900040450CD319EB02095F4121B9404502D10D
:100EA0009F4329EA0209BBEB175F00D0761C20881C
:100EB000000502D57B48784402E07A487844193826
:100EC00008AA302302F80A30037C0AF10101002E3F
:100ED0000AF1020A53546A4602DC4FF0300101E085
:100EE0004FF031014FF001088DF8001002D0A6F24A
:100EF000FF3603E059EA470100D06B4E002D02DCBB
:100F00002178090704D54FF002082E218DF8011031
:100F1000C44600210BE0C7F303433F01C35C491CF7
:100F20006D1E02F80830052908F1010801DA002DCC
:100F3000F1DC00210CE000EB1973491C1B786D1EDD
:100F4000082902F808304FEA091908F1010801DA06
:100F5000002DF0DC21688B0602D516E0A8F101080F
:100F6000E04505DD02EB080313F8013C302BF5D01A
:100F7000B8F1000F09DD02EB080313F8013C2E2B3A
:100F800003D1090701D4A8F10108002D05DD3E2198
:100F900002F808106D1E08F10108407C002E02F8CE
:100FA000080008F1010804DA2D20764202F8080052
:100FB00002E02B2002F808000A214FF47A708642E2
:100FC00008F101080BDB96FBF0F3303302F8083030
:100FD00096FBF0F308F1010800FB136601E0642EB4
:100FE0000CDB642096FBF0F3303302F8083096FBFC
:100FF000F0F308F1010800FB136601E00A2E06DB9E
:1010000096FBF1F0303002F8080008F1010896FB79
:10101000F1F001FB1060303002F80800A16908F11E
:10102000010808EB050202EB0A00081AA06120780B
:10103000C00602D42046FFF75DF9216A08AE01EB35
:101040000A00206204E0D4E9012116F8010B904760
:10105000BAF1010AF7D22078C00602D52046FFF780
:1010600049F96E4609E016F8010B3E280FD0D4E985
:1010700001219047206A401C2062B8F10108F2D299
:101080002046FFF74DF909B00320BDE8F08F206A34
:101090002844206203E0D4E90121302090476D1EEE
:1010A000EBD3F8E7364A000002FCFFFF10B54369B6
:1010B00013B1AFF3008001E0FFF755F9012010BD37
:1010C000127800F124010A7000224A700122EDE733
:1010D00011684FF0FF32E9E710B5436913B1AFF380
:1010E000008001E0FFF7D6F9012010BD128800F161
:1010F000240182840022C2840122EDE711684FF0AE
:10110000FF32E9E72DE9F04116460C46054600F0AE
:1011100043F8036893F80101012807D0FF2C12D887
:10112000185D80B101202C70BDE8F081D3F8070173
:101130003246214603F20713C7182846BC46BDE8CD
:10114000F041002360474FF0FF30EDE7754600F0B7
:10115000EBF8AE4605006946534620F00700854689
:1011600018B020B5FFF774F8BDE820404FF0000636
:101170004FF000074FF000084FF0000BAC46ACE812
:10118000C009ACE8C009ACE8C009ACE8C00921F06E
:1011900007018D467047000010B500F005F8001DEE
:1011A00010BD00BF494200000048704730000020D9
:1011B0002DE9F0411F46044603260168072A01F481
:1011C000006004DB08B116A505E016A503E008B130
:1011D00015A500E015A521F010002060A069C01E33
:1011E000A0610FB1401EA0612046FFF783F84FB108
:1011F000D4E9012138469047206A401C2062C01C77
:10120000206206E0206AFAE7D4E9012115F8010B13
:101210009047761EF8D22046FFF782F8BDE8F081AD
:101220004E414E006E616E00494E4600696E66008A
:101230002DE9F047814616468AB0354878440DC8F6
:101240008DE80D0032487844801C03AC0DC884E85A
:101250000D0041F69B300844372190FBF1F290FBE2
:10126000F1F5A5F1800501FB12041B3C02D5644297
:10127000012000E00020DFF898A080460027FA4413
:10128000AAF1BE0A0EE0E0070AD03246684607EB34
:10129000470101230AEB810103F03FFF8DE80700BE
:1012A00064107F1C002CEED1194F7F44AE3F19E033
:1012B000E80715D007EB04100DF1180A90E80E00AE
:1012C0008AE80E00C068F04201D1981908903246B1
:1012D000012306A903A803F020FF03AB83E807005E
:1012E0006D10641C002DE3D14FF0010332466946B6
:1012F000B8F1000F03A802D003F0FAFE01E003F0FA
:101300000CFFC9E90001C9F808200AB0BDE8F08760
:101310004047000010B50446AFF300802046BDE80A
:101320001040FEF780BF000000487047100000200A
:101330004FF0013C50F8042B51F8043B9A4221D164
:10134000A2EB0C03934313EACC1317D150F8042BF0
:1013500051F8043B9A4215D1A2EB0C03934313EAD4
:10136000CC130BD150F8042B51F8043B9A4209D10D
:10137000A2EB0C03934313EACC13DBD04FF0000035
:10138000704700BFD01A01BAB1FA81F101F018011B
:1013900022FA01F0CB40DBB2C0B2C01AC1F1200189
:1013A0002CFA01F3D11A914311EAC311E6D1704727
:1013B00001491820ABBEFEE726000200704700007E
:1013C000FFE7FEE780B540F26810C2F20000007847
:1013D00068BBFFE70021084603F04CFB45F64A20B6
:1013E000C0F6000003F0CEFBFFE740F26810C2F247
:1013F00000000078D0B9FFE703F074F940F6000070
:10140000C4F20100012100F0CBFC70B9FFE740F20B
:101410006810C2F20000007838B9FFE740F26811A6
:10142000C2F2000101200870FFE7DEE7FFE780BDA0
:1014300080B540F60040C4F201002021012200F0F6
:10144000DBFC80BD80B584B08DF80F008DF80E10E8
:1014500041F20000C4F201004FF4804100F0A0FC12
:10146000012858D1FFE7142000F002FA41F20000F1
:10147000C4F201004FF4804100F092FC012849D1F0
:10148000FFE703F0E1FA322000F0F2F9FFE741F262
:101490000000C4F201004FF4804100F081FC0128FB
:1014A00037D1FFE70021084603F0E4FA45F60920AA
:1014B000C0F6000003F066FB03F014F940F2780078
:1014C000C2F20000006802909DF80F00053804F099
:1014D00001F90146029803F0E5FFC8B9FFE702F001
:1014E000BFFDFFE740F27800C2F200000068019003
:1014F0009DF80F0004F0EEF80146019803F0D2FFCA
:1015000018B9FFE703F0EEF8ECE7FFF791FFFFE70C
:10151000BDE7FFE7FFE702F017FE642000F0A8F93F
:1015200004B080BD80B540F60000C4F20100802107
:10153000002200F061FC80BD80B540F60000C4F2DE
:1015400001004021002200F057FC80BD80B540F62C
:101550000040C4F201004FF48071012200F04CFC05
:1015600040F27001C2F200010020087080BD00004E
:1015700080B540F60040C4F201004FF40041012262
:1015800000F03AFC80BD000080B540F60040C4F297
:1015900001004FF40071012200F02EFC80BD00001C
:1015A00080B540F60040C4F201004FF40051012222
:1015B00000F022FC80BD000080B582B08DF80700ED
:1015C0009DF8070040088DF80700FFE740F2810012
:1015D000C2F2000000789DF80710884203DAFFE7A6
:1015E00003F080F8F2E702B080BD000081B0009007
:1015F00040F2D800C2F20000016800204862FFE714
:1016000040F2D800C2F200000068406A00998842A7
:1016100001D2FFE7F4E701B07047000080B588B061
:1016200007900021069105910491039102910120F8
:1016300003F020FA079803F0F5FE02460B4645F644
:101640007221C0F6000102A80190FEF713FE019876
:1016500003F098FA432003F05FFA08B080BD000061
:1016600080B588B007900020069005900490039004
:1016700002900120092103F0FDF9079803F0D2FE42
:1016800002460B4645F67921C0F6000102A80190FA
:10169000FEF7F0FD019803F075FA432003F03CFAE1
:1016A00008B080BD80B586B0002003908DF817008B
:1016B00040F60040C4F201004FF4806102F008FEE1
:1016C00003980490FFE7049807282EDCFFE740F614
:1016D0000040C4F2010001904FF48061029102F0D9
:1016E0000DFE01980299002200F086FB0120FFF711
:1016F0007DFF0198029902F0EBFD0198029900F03C
:101700004FFB50B1FFE70499012000FA01F19DF869
:10171000170008438DF81700FFE73220FFF766FF38
:10172000FFE7049801300490CDE79DF8170006B05C
:1017300080BD000080B584B0002000908DF80F00BF
:1017400040F60040C4F2010001904FF48061029124
:1017500002F0D4FD009A0198029900F04DFB4FF47D
:10176000F070FFF743FF0198029902F0B1FD50209D
:10177000FFF73CFF0198029900F012FB20B9FFE748
:1017800001208DF80F0003E002208DF80F00FFE725
:101790004FF4C870FFF72AFF9DF80F0004B080BD1A
:1017A00080B586B08DF8170040F60040C4F2010005
:1017B0004FF4806102F0A2FD00200490FFE704983E
:1017C00007283DDCFFE79DF817000499C840C007D3
:1017D000D0B1FFE740F60040C4F2010002904FF4A0
:1017E0008061039102F08AFD02980399002200F0C3
:1017F00003FB0120FFF7FAFE0298039902F068FD4F
:101800003220FFF7F3FE16E040F60040C4F201007C
:1018100000904FF48061019102F070FD00980199F1
:10182000002200F0E9FA3220FFF7E0FE009801996B
:1018300002F04EFDFFE7FFE7049801300490BEE799
:1018400006B080BD7047000080B5012000F0FCF8B4
:1018500080BD000080B5082000F0F6F880BD0000D3
:1018600080B5102000F0F0F880BD00007047000047
:1018700080B584B0039000F0D7FA029003980190ED
:101880000198013048B1FFE740F20400C2F20000C5
:101890000178019808440190FFE7FFE700F0C4FADF
:1018A0000299401A0199884201D2FFE7F6E704B095
:1018B00080BD000080B582B0ADF80600BDF806001E
:1018C00001282AD1FFE740F60040C4F201000121BF
:1018D00000F066FA00BBFFE7C820FFF787FE40F67E
:1018E0000040C4F20100012100F05AFA98B9FFE764
:1018F00040F27000C2F20000007860B9FFE7FFF725
:101900004FFE40F27001C2F2000101200870062073
:1019100000F0B4FDFFE7FFE794E0BDF806000828FB
:101920001CD1FFE740F60000C4F20100082100F0DE
:1019300037FA88B9FFE74FF4FA70FFF799FF40F6DE
:101940000000C4F20100082100F02AFA18B9FFE7EC
:1019500003F050F9FFE700E0FFE772E0BDF8060092
:1019600010286DD1FFE740F60000C4F201001021FD
:1019700000F016FA002862D1FFE7C820FFF736FE14
:1019800040F60000C4F20100102100F009FA00281E
:101990004DD1FFE740F27100C2F20000007800284C
:1019A00045D1FFE740F28000C2F20000017801312A
:1019B000017040F27102C2F2000201211170007840
:1019C000C007A8B9FFE740F28000C2F2000000782B
:1019D00001280DDBFFE703F037F80020042103F0B6
:1019E00049F845F6FF10C0F6000003F0CBF81DE003
:1019F00040F28000C2F200000078C007A8B1FFE703
:101A000040F28000C2F20000007801280DDBFFE701
:101A100003F01AF80020042103F02CF845F6DD103D
:101A2000C0F6000003F0AEF8FFE7FFE706E040F283
:101A30007101C2F2000100200870FFE7FFE7FFE735
:101A4000FFE7FFE702B080BD80B582B0ADF80600C9
:101A500040F21440C4F201000068BDF806100842CC
:101A60000CD0FFE7BDF8060040F21441C4F20101BA
:101A70000860BDF80600FFF71DFFFFE702B080BD5C
:101A800090B00F900E9100200D900990FFE70E98F6
:101A900000680D99C840002800F07F81FFE70D998C
:101AA000012088400C900E9800680C9908400B901B
:101AB0000B980C99884240F06C81FFE70E984068C3
:101AC0000590002851D0FFE7059801283AD0FFE79C
:101AD000059802283FD0FFE7059803285FD0FFE76D
:101AE0000598112832D0FFE70598122838D0FFE773
:101AF00005980021C1F21101884236D0FFE7059810
:101B00000021C1F2120188422FD0FFE70598002181
:101B1000C1F22101884228D0FFE705980021C1F2D7
:101B20002201884221D0FFE705980021C1F231014E
:101B300088421AD0FFE705980021C1F2320188429D
:101B400013D02FE00E98C06809902CE00E98C06862
:101B50000430099027E00E98C0680830099022E010
:101B60000E98C0680C3009901DE00E98806818B976
:101B7000FFE70420099011E00E988068012806D143
:101B8000FFE7082009900C980F99086105E00820EC
:101B900009900C980F994861FFE7FFE703E00020E8
:101BA000099000E0FFE70B98FF2803D8FFE70F98A4
:101BB000049003E00F9804300490FFE70498089025
:101BC0000B98FF2804D8FFE70D988000039006E0EB
:101BD0000D996FF01F0000EB81000390FFE7039861
:101BE000079008980068079A0F2191408843099947
:101BF00091400843089908600E98C079C0060028F3
:101C000040F1C680FFE7FFE741F21800C4F202008E
:101C1000016841F001010160006800F001000690D8
:101C20000698FFE70D9820F003000821C4F2010197
:101C300040580A900D9800F0030081000F2000FA30
:101C400001F10A9888430A900F9840F60001C4F207
:101C50000101884203D1FFE70020029026E00F989F
:101C600040F60041C4F20101884203D1FFE70120A0
:101C7000019018E00F9841F20001C4F2010188427E
:101C800003D1FFE7022000900AE00F9941F20042E1
:101C9000C4F201020420914208BF03200090FFE734
:101CA00000980190FFE701980290FFE702980D99D4
:101CB00001F00301890000FA01F10A9808430A9033
:101CC0000A980D9921F003010822C4F201028850FC
:101CD0000E988079C006002809D5FFE70B9A40F2DC
:101CE0000841C4F2010108681043086008E00B9A3B
:101CF00040F20841C4F20101086890430860FFE720
:101D00000E9880798006002809D5FFE70B9A40F2EB
:101D10000C41C4F2010108681043086008E00B9A06
:101D200040F20C41C4F20101086890430860FFE7EB
:101D30000E9880798007002809D5FFE70B9A40F2BA
:101D40000441C4F2010108681043086008E00B9ADE
:101D500040F20441C4F20101086890430860FFE7C3
:101D60000E988079C00748B1FFE70B9A40F2004116
:101D7000C4F2010108681043086008E00B9A40F2C1
:101D80000041C4F20101086890430860FFE7FFE7E3
:101D9000FFE70D9801300D9079E610B07047000014
:101DA00082B00190ADF8021001988068BDF8021071
:101DB000084204D0FFE701208DF8010003E0002075
:101DC0008DF80100FFE79DF8010002B070470000A8
:101DD00083B00290ADF806100298C0680090009A97
:101DE000BDF8060002EA0001904340EA0140029972
:101DF000086103B07047000082B00190ADF8021096
:101E00008DF801209DF8010028B1FFE7BDF8020020
:101E10000199086105E0BDF802000004019908611C
:101E2000FFE702B07047000040F26C10C2F2000001
:101E30000068704780B58EB00C900C9820B9FFE711
:101E400001208DF8370043E10C9890F83D0040B92F
:101E5000FFE70C99002081F83C000C9800F040FA54
:101E6000FFE70C99242081F83D000C980168086870
:101E700020F0010008600C980168086840F40040F8
:101E800008600C980168086820F40040086000F0C1
:101E90005DFC0A900C98406848F2A061C0F2010114
:101EA00088420BD8FFE70A9948F28042C0F21E022E
:101EB0000020914238BF012009900AE00A9940F6BB
:101EC0000012C0F23D020020914238BF012009906B
:101ED000FFE70998012804D1FFE701208DF83700BA
:101EE000F6E00A984DF68361C4F21B31A0FB0110A5
:101EF000800C0B900C980068406820F03F000B9914
:101F000008430C99096848600C980068006A20F042
:101F10003F0008900C98406848F2A061C0F20101AF
:101F2000884204D8FFE70B98013007900EE00B9829
:101F30004FF49671484344F6D351C1F26201A0FBBD
:101F40000101012000EB91100790FFE70898079925
:101F500008430C99096808620C980068C0694CF63F
:101F6000FF71884306900C98406848F2A061C0F267
:101F7000010188421FD8FFE70A9801380C99496887
:101F80004900B0FBF1F001306FF31F30032803D894
:101F9000FFE7042005900BE00A9801380C99496886
:101FA0004900B0FBF1F001306FF31F300590FFE7FF
:101FB000059804904CE00C98806868B9FFE70A988F
:101FC00001380C99496801EB4101B0FBF1F0013097
:101FD0006FF31F3003900DE00A9801380C9949689F
:101FE00019225143B0FBF1F00130042161F31F309D
:101FF0000390FFE70398000518B9FFE7012002905E
:1020000023E00C98806868B9FFE70A9801380C99BA
:10201000496801EB4101B0FBF1F001306FF31F3073
:1020200001900DE00A9801380C9949681922514332
:10203000B0FBF1F00130042161F31F300190FFE7A4
:10204000019840F400400290FFE702980490FFE7F7
:102050000698049908430C990968C8610C980068AF
:10206000006820F0C0000C9B1968DA691B6A1A43EB
:10207000104308600C980068806848F2FF3188437C
:102080000C9A1168D36812691A43104388600C983F
:102090000068C06820F0FF000C9B19685A699B69B2
:1020A0001A431043C8600C980168086840F00100AA
:1020B00008600C99002008640C9A202182F83D10D9
:1020C0000C9908630C9981F83E008DF83700FFE702
:1020D0009DF837000EB080BD80B588B0DDF828C00F
:1020E0000690ADF816100492ADF80E30FFF79CFE86
:1020F0000290069890F83D00202840F0E980FFE724
:10210000069802996A4611600221C0F2100101226C
:10211000192301F00FFC20B1FFE702208DF81F000A
:10212000DAE0FFE7069890F83C00012804D1FFE7C9
:1021300002208DF81F00CFE00699012081F83C00B5
:10214000FFE7FFE7069800680068C00738B9FFE7B7
:1021500006980168086840F001000860FFE70698EB
:102160000168086820F4006008600699212081F861
:102170003D000699102081F83E0006990020086471
:10218000049806994862BDF80E000699488506989D
:10219000408D0699088506990020CFF6FF70C86229
:1021A0000698BDF816100A9A029B01F0E3FA20B1D6
:1021B000FFE701208DF81F008EE0FFE7002001906F
:1021C000069800684069019006980068806901904F
:1021D0000198FFE7FFE70698008D002860D0FFE731
:1021E00006980A99029A01F0D3FC80B1FFE706989D
:1021F000006C042807D1FFE706980168086840F4DE
:1022000000700860FFE701208DF81F0064E0069869
:102210000168406A007808610699486A013048629E
:102220000699488D013848850699088D013808853A
:1022300006980068406900F004010120B0EB910F9E
:1022400016D1FFE70698008D90B1FFE70698016868
:10225000406A007808610699486A01304862069928
:10226000488D013848850699088D01380885FFE7B3
:1022700006980A99029A01F007FB80B1FFE70698D9
:10228000006C042807D1FFE706980168086840F44D
:1022900000700860FFE701208DF81F001CE09AE73E
:1022A00006980168086840F40070086006992020CC
:1022B00081F83D000699002081F83E00FFE706996D
:1022C000002081F83C00FFE700208DF81F0003E0AC
:1022D00002208DF81F00FFE79DF81F0008B080BDA9
:1022E00080B588B007900020069005900490039078
:1022F0000798006845F20041C4F2000188422CD1E1
:10230000FFE7FFE741F21800C4F20200016841F064
:1023100008010160006800F0080002900298FFE7E1
:10232000C0200390122004900320069040F6004045
:10233000C4F2010003A9FFF7A3FBFFE741F21C0071
:10234000C4F20200016841F400110160006800F469
:10235000001001900198FFE7FFE708B080BD000082
:1023600040F20400C2F20000027840F26C11C2F2A6
:1023700000010868104408607047000080B582B012
:1023800042F20001C4F20201086840F01000086047
:10239000032000F0A1F80020019000F005F800F003
:1023A0003BF8019802B080BD80B582B0009040F249
:1023B0000000C2F20000006840F20401C2F2000115
:1023C0000A784FF47A71B1FBF2F1B0FBF1F000F052
:1023D0006BFD20B1FFE701208DF8070018E00098A1
:1023E0000F280DD8FFE700994FF0FF30002200F0D2
:1023F00059F8009840F20801C2F20001086003E0B9
:1024000001208DF8070003E000208DF80700FFE7AA
:102410009DF8070002B080BD83B0FFE741F21800CD
:10242000C4F20200016841F001010160006800F09F
:10243000010002900298FFE7FFE741F21C00C4F29E
:102440000200016841F080510160006800F0805096
:1024500001900198FFE7FFE70421C4F20101086839
:102460000090009820F0E0600090009840F000702C
:10247000009000980860FFE703B0704780B582B015
:102480008DF807009DF9070002F04EFA02B080BDFA
:1024900080B582B08DF807009DF9070002F060FA60
:1024A00002B080BD80B586B08DF81700049103920C
:1024B0000020029002F06CFA02909DF91700019042
:1024C00002980499039A01F095FD0146019802F0E3
:1024D00067FA06B080BD000080B582B00190019817
:1024E00002F080FA02B080BD80B584B00290019104
:1024F000029820B9FFE701208DF80F001BE1019839
:1025000042F20001C4F20201096801F007018842A9
:1025100016D9FFE742F20000C4F20200016821F080
:102520000701019A11430160006800F0070001995A
:10253000884204D0FFE701208DF80F00FBE0FFE7A1
:1025400002980078800700282AD5FFE702980078D3
:102550004007002809D5FFE741F20401C4F2020157
:10256000086840F4E0600860FFE702980078000720
:10257000002809D5FFE741F20401C4F2020108680E
:1025800040F460500860FFE741F20401C4F2020128
:10259000086820F0F000029A926810430860FFE794
:1025A00002980078C007002860D0FFE702984068D2
:1025B00001280ED1FFE741F20000C4F202000068DA
:1025C0008003002804D4FFE701208DF80F00B2E05B
:1025D00021E00298406802280ED1FFE741F2000096
:1025E000C4F2020000688001002804D4FFE7012043
:1025F0008DF80F009FE00DE041F20000C4F20200F0
:1026000000688007002804D4FFE701208DF80F0040
:1026100091E0FFE7FFE741F20401C4F2020108681C
:1026200020F00300029A526810430860FFF7FCFB99
:102630000090FFE741F20400C4F20200006800F0DD
:102640000C0002994968B0EB810F0ED0FFE7FFF74D
:10265000EBFB0099401A41F28931884204D3FFE72D
:1026600003208DF80F0066E0E4E7FFE7019842F2EF
:102670000001C4F20201096801F00701884216D284
:10268000FFE742F20000C4F20200016821F00701F6
:10269000019A11430160006800F007000199884227
:1026A00004D0FFE701208DF80F0044E0FFE7029817
:1026B0000078400700280CD5FFE741F20401C4F27E
:1026C0000201086820F4E060029AD26810430860B2
:1026D000FFE702980078000700280DD5FFE741F2D8
:1026E0000401C4F20201086820F46050029A1269E1
:1026F00040EAC2000860FFE700F03AF841F2040146
:10270000C4F202010968C9B20A0945F69811C0F677
:102710000001895CC84040F20001C2F2000108607B
:1027200040F20800C2F200000068FFF73DFE002002
:102730008DF80F00FFE79DF80F0004B080BD00008A
:1027400040F20000C2F200000068704780B5FFF759
:10275000F7FF41F20401C4F202010968C1F3022249
:1027600045F6A811C0F60001895CC84080BD000094
:1027700086B000200590049003900290019041F2F1
:102780000400C4F2020000680590059800F00C00F7
:102790000146009100283FD0FFE70098042804D0AC
:1027A000FFE70098082806D037E041F20020C0F289
:1027B0007A00019037E00598C0F3834145F6B010E8
:1027C000C0F60000405C02909DF81600C007C0B142
:1027D000FFE741F20400C4F202000068C0F3404188
:1027E00045F6C010C0F60000405C0490029841F22B
:1027F0000021C0F27A0148430499B0FBF1F0039044
:1028000007E0029840F60011C0F23D0148430390F2
:10281000FFE70398019006E0FFE741F20020C0F2D5
:102820007A000190FFE7019806B0704780B586B046
:102830000490049820B9FFE701208DF817002EE3DB
:1028400004980078C007002800F0AE80FFE741F24E
:102850000400C4F20200006800F00C00042813D049
:10286000FFE741F20400C4F20200006800F00C002F
:1028700008281BD1FFE741F20400C4F202000068FF
:10288000C003002812D5FFE741F20000C4F20200A5
:1028900000688003002808D5FFE70498406820B945
:1028A000FFE701208DF81700F9E27CE0FFE70498CC
:1028B0004068B0F5803F09D1FFE741F20001C4F262
:1028C0000201086840F48030086032E004984068F3
:1028D00068B9FFE741F20001C4F20201086820F480
:1028E00080300860086820F48020086020E00498A8
:1028F0004068B0F5A02F0DD1FFE741F20001C4F20E
:102900000201086840F480200860086840F48030C4
:1029100008600CE041F20001C4F20201086820F4F2
:1029200080300860086820F480200860FFE7FFE737
:10293000FFE7FFE704984068D0B1FFE7FFF774FABC
:102940000390FFE741F20000C4F202000068800338
:1029500000280CD4FFE7FFF767FA0399401A6528AF
:1029600004D3FFE703208DF8170098E2EAE719E0A7
:10297000FFF75AFA0390FFE741F20000C4F20200A9
:102980000068800300280CD5FFE7FFF74DFA039994
:10299000401A652804D3FFE703208DF817007EE274
:1029A000EAE7FFE7FFE7FFE70498007880070028E1
:1029B00040F18D80FFE741F20400C4F2020000689C
:1029C00010F00C0F13D0FFE741F20400C4F2020034
:1029D000006800F00C00082829D1FFE741F204004C
:1029E000C4F202000068C003002820D4FFE741F2CF
:1029F0000000C4F2020000688007002809D5FFE744
:102A000004980069012804D0FFE701208DF8170021
:102A100045E241F20001C4F20201086820F0F8002A
:102A2000049A526940EAC2000860FFE74EE0049849
:102A3000006958B3FFE70021C4F242210120086079
:102A4000FFF7F2F90390FFE741F20000C4F2020041
:102A50000068800700280CD4FFE7FFF7E5F9039929
:102A6000401A032804D3FFE703208DF8170016E26D
:102A7000EAE741F20001C4F20201086820F0F80020
:102A8000049A526940EAC20008601EE00021C4F2C4
:102A9000422100200860FFF7C7F90390FFE741F2E9
:102AA0000000C4F202000068800700280CD5FFE790
:102AB000FFF7BAF90399401A032804D3FFE703206C
:102AC0008DF81700EBE1EAE7FFE7FFE7FFE704987F
:102AD00000780007002848D5FFE70498806918B3FC
:102AE000FFE740F28041C4F2422101200860FFF775
:102AF0009BF90390FFE741F22400C4F20200006852
:102B0000800700280CD4FFE7FFF78EF90399401ADD
:102B1000032804D3FFE703208DF81700BFE1EAE79D
:102B2000012001F0F3FA1FE040F28041C4F242219B
:102B300000200860FFF778F90390FFE741F22400D6
:102B4000C4F202000068800700280CD5FFE7FFF7F9
:102B50006BF90399401A032804D3FFE703208DF88B
:102B600017009CE1EAE7FFE7FFE7049800784007D9
:102B7000002840F1D880FFE700208DF8070041F2DF
:102B80001C00C4F202000068C000002813D4FFE754
:102B9000FFE741F21C00C4F20200016841F08051DD
:102BA0000160006800F0805000900098FFE701206D
:102BB0008DF80700FFE747F20000C4F2000000684C
:102BC000C005002822D4FFE747F20001C4F200014B
:102BD000086840F480700860FFF726F90390FFE76B
:102BE00047F20000C4F200000068C00500280CD4C1
:102BF000FFE7FFF719F90399401A652804D3FFE7A7
:102C000003208DF817004AE1EAE7FFE7FFE70498A1
:102C1000C068012809D1FFE741F22001C4F2020196
:102C2000086840F00100086031E00498C06868B9A5
:102C3000FFE741F22001C4F20201086820F0010020
:102C40000860086820F0040008601FE00498C0686D
:102C500005280DD1FFE741F22001C4F20201086806
:102C600040F004000860086840F0010008600CE0D3
:102C700041F22001C4F20201086820F0010008605E
:102C8000086820F004000860FFE7FFE7FFE7FFE7C0
:102C90000498C068E0B1FFE7FFF7C6F80390FFE7CC
:102CA00041F22000C4F202000068800700280ED420
:102CB000FFE7FFF7B9F80399401A41F289318842DA
:102CC00004D3FFE703208DF81700E8E0E8E71BE0F6
:102CD000FFF7AAF80390FFE741F22000C4F20200D8
:102CE0000068800700280ED5FFE7FFF79DF80399DD
:102CF000401A41F28931884204D3FFE703208DF85E
:102D00001700CCE0E8E7FFE79DF80700012809D1AC
:102D1000FFE741F21C01C4F20201086820F0805074
:102D20000860FFE7FFE70498C069002800F0B3805F
:102D3000FFE741F20400C4F20200006800F00C005A
:102D4000082800F08280FFE70498C06902285CD15F
:102D5000FFE76021C4F2422100200860FFF764F819
:102D60000390FFE741F20000C4F202000068800116
:102D700000280CD5FFE7FFF757F80399401A0328FE
:102D800004D3FFE703208DF8170088E0EAE70498F2
:102D9000006AB0F5803F0CD1FFE741F20401C4F2B4
:102DA0000201086820F40030049A92681043086019
:102DB000FFE741F20401C4F20201086820F4741034
:102DC000049B1A6A5B6A1A43104308606021C4F2CC
:102DD000422101200860FFF727F80390FFE741F246
:102DE0000000C4F202000068800100280CD4FFE754
:102DF000FFF71AF80399401A032804D3FFE70320CA
:102E00008DF817004BE0EAE71EE06021C4F2422192
:102E100000200860FFF708F80390FFE741F2000088
:102E2000C4F202000068800100280CD5FFE7FEF71D
:102E3000FBFF0399401A032804D3FFE703208DF812
:102E400017002CE0EAE7FFE724E00498C0690128B6
:102E500004D1FFE701208DF8170020E041F20400C3
:102E6000C4F2020000680290029800F480300499D5
:102E7000096A884208D1FFE7029800F470100499AB
:102E8000496A884204D0FFE701208DF8170006E068
:102E9000FFE7FFE7FFE700208DF81700FFE79DF849
:102EA000170006B080BD000080B582B00190019887
:102EB00001F03CFA02B080BD81B0009001B07047D3
:102EC00081B0009001B0704785B003900291FFE798
:102ED000039890F83C00012804D1FFE702208DF808
:102EE00013005BE00399012081F83C00FFE7FFE756
:102EF0000399022081F83D00039800684068019022
:102F00000398006880680090019820F0700001909C
:102F10000298016801980843019001980399096893
:102F200048600398006842F60041C4F201018842FB
:102F300018D0FFE703980068B0F1804F12D0FFE788
:102F40000398006840F20041C4F20001884209D0B1
:102F5000FFE70398006840F60001C4F200018842D0
:102F60000ED1FFE7009820F08000009002984168A1
:102F70000098084300900098039909688860FFE76B
:102F80000399012081F83D00FFE70399002081F8B3
:102F90003C00FFE700208DF81300FFE79DF81300C9
:102FA00005B0704780B582B00090009820B9FFE767
:102FB00001208DF807003FE0009890F83D0040B9EF
:102FC000FFE70099002081F83C00009800F038F8F5
:102FD000FFE70099022081F83D00009951F8040BA9
:102FE00001F086FA0099012081F84600FFE7009978
:102FF000012081F83E00009981F83F00009981F896
:103000004000009981F84100FFE7FFE700990120A7
:1030100081F84200009981F84300009981F844004A
:10302000009981F84500FFE70099012081F83D00F3
:1030300000208DF80700FFE79DF8070002B080BD73
:1030400080B584B003900398006842F60041C4F252
:103050000101884210D1FFE7FFE741F21800C4F2F6
:103060000200016841F400610160006800F4006042
:1030700002900298FFE722E00398006840F20041C6
:10308000C4F20001884219D1FFE7FFE741F21C00BA
:10309000C4F20200016841F002010160006800F022
:1030A000020001900198FFE71D20009002210022FC
:1030B000FFF7F8F90098FFF7EBF9FFE7FFE704B037
:1030C00080BD000080B586B00490039100208DF88B
:1030D0000B00FFE7049890F83C00012804D1FFE7BB
:1030E00002208DF81700ABE00499012081F83C0024
:1030F000FFE7FFE70499022081F83D00049800688B
:1031000080680190019820F077000190019820F4E8
:103110007F400190019804990968886003980068CD
:103120000090002872D0FFE7009810286ED0FFE7CB
:10313000009820286AD0FFE70098302866D0FFE783
:103140000098402855D0FFE70098502837D0FFE777
:103150000098602840D0FFE7009870280BD0FFE768
:103160000098B0F5805F05D0FFE70098B0F5005FEC
:1031700016D052E055E004980068039B5A6899689D
:10318000DB6801F02DFA04980068806801900198CE
:1031900040F077000190019804990968886040E048
:1031A00004980068039B5A689968DB6801F018FA74
:1031B00004980168886840F48040886031E0049891
:1031C0000068039A5168D26801F03AFA04980068DE
:1031D000502101F01FFA24E004980068039A516816
:1031E000D26801F055FA04980068602101F012FAE3
:1031F00017E004980068039A5168D26801F020FA39
:1032000004980068402101F005FA0AE0049800687B
:103210000399096801F0FEF903E001208DF80B0025
:10322000FFE70499012081F83D00FFE704990020A1
:1032300081F83C00FFE79DF80B008DF81700FFE7D1
:103240009DF8170006B080BD81B0009001B07047B6
:1032500080B582B0019001980068006900F0020119
:103260000020B0EB510F28D0FFE701980068C0683C
:1032700000F002010020B0EB510F1DD0FFE70198D4
:1032800001686FF002000861019901200877019838
:1032900000688069800720B1FFE70198FFF7D4FF3D
:1032A00006E0019800F012F9019800F013F9FFE729
:1032B000019900200877FFE7FFE70198006800699F
:1032C00000F004010020B0EB910F29D0FFE7019836
:1032D0000068C06800F004010020B0EB910F1ED020
:1032E000FFE7019801686FF004000861019902206E
:1032F000087701980068806910F4407F04D0FFE7E8
:103300000198FFF7A1FF06E0019800F0DFF80198AF
:1033100000F0E0F8FFE7019900200877FFE7FFE7FA
:1033200001980068006900F008010020B0EBD10F9F
:1033300028D0FFE701980068C06800F0080100206D
:10334000B0EBD10F1DD0FFE7019801686FF00800C6
:10335000086101990420087701980068C069800716
:1033600020B1FFE70198FFF76FFF06E0019800F03A
:10337000ADF8019800F0AEF8FFE70199002008775A
:10338000FFE7FFE701980068006900F010010020E6
:10339000B0EB111F29D0FFE701980068C06800F06A
:1033A00010010020B0EB111F1ED0FFE7019801684B
:1033B0006FF01000086101990820087701980068F3
:1033C000C06910F4407F04D0FFE70198FFF73CFF8D
:1033D00006E0019800F07AF8019800F07BF8FFE72A
:1033E000019900200877FFE7FFE70198006800696E
:1033F000C00780B1FFE701980068C068C00748B106
:10340000FFE7019801686FF001000861019800F082
:1034100065F8FFE7FFE7019800680069C1B2002086
:10342000B0EBD11F13D0FFE701980068C068C1B2AC
:103430000020B0EBD11F09D0FFE7019801686FF0C1
:10344000800008610198FFF737FDFFE7FFE701986B
:103450000068006900F040010020B0EB911F14D01B
:10346000FFE701980068C06800F040010020B0EB61
:10347000911F09D0FFE7019801686FF040000861D3
:10348000019800F03FF9FFE7FFE701980068006945
:1034900000F020010020B0EB511F14D0FFE701988D
:1034A0000068C06800F020010020B0EB511F09D077
:1034B000FFE7019801686FF0200008610198FFF7AD
:1034C000FFFCFFE7FFE702B080BD000081B0009085
:1034D00001B0704781B0009001B0704780B584B0F2
:1034E00003900398006840F22011C2F200010968BD
:1034F000884240F00581FFE740F60040C4F2010039
:103500000221FEF74DFC01282ED1FFE76420FEF7D3
:10351000AFF940F60040C4F201000221FEF740FC82
:10352000012820D1FFE700F0C5FE1420FEF7A0F926
:1035300001F08AFA3220FEF79BF90020052101F004
:1035400099FA45F6D510C0F6000001F01BFBFFE725
:103550000120002101F08EFA45F65B20C0F6000044
:1035600001F010FBF4E7FFE740F27800C2F2000040
:103570000068029045F6C410C0F60000007802F022
:10358000A9F80146029801F086FF98B9FFE740F2DA
:103590007C00C2F200000068019045F6C410C0F63D
:1035A0000000007802F096F80146019801F081FFD2
:1035B00000BBFFE700F07EFE1420FEF759F901F092
:1035C00043FA3220FEF754F90020052101F052FAA7
:1035D00045F6CD10C0F6000001F0D4FAFFE7012057
:1035E000002101F047FA45F65B20C0F6000001F02B
:1035F000C9FAF4E740F60040C4F201004FF400417C
:10360000FEF7CEFB68BBFFE741F20000C4F2010009
:103610004FF48041FEF7C4FB012822D1FFE732209E
:10362000FEF726F940F60040C4F201004FF40041D5
:10363000FEF7B6FBA0B9FFE741F20000C4F20100BB
:103640004FF48041FEF7ACFB012809D1FFE701F000
:10365000D1FA40F26811C2F2000100200870FFE7C1
:10366000FFE740F60040C4F201004FF40041FEF7CE
:1036700097FB50B1FFE740F60040C4F201004FF461
:103680008071FEF78DFB40B9FFE740F28101C2F285
:10369000000108780130087006E040F28101C2F2B2
:1036A000000100200870FFE740F60000C4F20100AE
:1036B0002021FEF775FBB8B9FFE71420FEF7D8F814
:1036C00040F60000C4F201002021FEF769FB50B96A
:1036D000FFE740F60040C4F201004FF48071002281
:1036E000FEF78AFBFFE702E0FDF730FFFFE741F25C
:1036F0000000C4F201004FF40051FEF769FBFFE740
:1037000004B080BD81B0009001B07047FFE7FEE7D4
:1037100082B0009000980068406900F48061012048
:10372000B0EB912F1ED1FFE7009801686FF4806025
:103730004861009900200863009A202182F83D101A
:10374000009981F83E000099086C40F0040008647C
:10375000FFE70099002081F83C00FFE701208DF889
:10376000070003E000208DF80700FFE79DF8070041
:1037700002B0704780B588B00690ADF8161004927C
:1037800003930698C06A02900298082809D0FFE7C0
:103790000298012805D0FFE7029810F5803F07D175
:1037A000FFE706980168086840F4807008600DE043
:1037B0000698006B122807D1FFE706980168086891
:1037C00040F48070086000E0FFE7FFE70698049B84
:1037D00003996A4611604FF00111002200F0AAF827
:1037E00080B1FFE7069800680068C005002805D58D
:1037F000FFE706994FF400700864FFE703208DF897
:103800001F003CE006980069B0F5804F08D1FFE743
:10381000BDF8160000F0FE000699096808611CE07A
:10382000BDF8160000F44070C009F0300699096830
:1038300008610698049A039B0821C0F2010100F078
:10384000FDF820B1FFE701208DF81F0017E09DF87B
:103850001600069909680861FFE70698049A039B19
:103860000221C0F2010100F0E9F820B1FFE70120D8
:103870008DF81F0003E000208DF81F00FFE79DF882
:103880001F0008B080BD000080B584B00290019197
:103890000092FFE702980068406900F004010020F0
:1038A000B0EB910F3ED1FFE70298FFF731FF20B157
:1038B000FFE701208DF80F0038E00198013080B358
:1038C000FFE7FEF7B1FA0099401A0199884203D840
:1038D000FFE7019820BBFFE702980068406900F00D
:1038E00004010020B0EB910F19D1FFE702990020ED
:1038F0000863029A202182F83D10029981F83E0067
:103900000299086C40F020000864FFE7029900204B
:1039100081F83C00FFE701208DF80F0006E0FFE78B
:10392000FFE7B7E700208DF80F00FFE79DF80F00D5
:1039300004B080BD80B588B0DDF828C00690059140
:103940008DF813200393FFE79DF8160001280CD192
:10395000FFE7069800684069BDF814100840401A57
:10396000B0FA80F0400902900BE006980068806988
:10397000BDF814100840401AB0FA80F040090290D7
:10398000FFE702989DF8131088424FD1FFE7039894
:103990000130002849D0FFE7FEF746FA0A99401A9D
:1039A0000399884203D8FFE70398E8BBFFE79DF837
:1039B000160001280CD1FFE7069800684069BDF8A1
:1039C00014100840401AB0FA80F0400901900BE052
:1039D000069800688069BDF814100840401AB0FAD3
:1039E00080F040090190FFE701989DF8131088428C
:1039F00019D1FFE7069900200863069A202182F872
:103A00003D10069981F83E000699086C40F02000B0
:103A10000864FFE70699002081F83C00FFE70120D9
:103A20008DF81F0006E0FFE7FFE78DE700208DF827
:103A30001F00FFE79DF81F0008B080BD80B588B06B
:103A40000690059104920393FFE79DF81600012864
:103A50000CD1FFE7069800684069BDF814100840D3
:103A6000401AB0FA80F0400902900BE00698006816
:103A70008069BDF814100840401AB0FA80F040097F
:103A80000290FFE7029800287AD1FFE706980068C5
:103A9000406900F480610120B0EB912F24D1FFE751
:103AA00006980168086840F400700860069801688C
:103AB0006FF480604861069900200863069A20210F
:103AC00082F83D10069981F83E000699086C40F096
:103AD00004000864FFE70699002081F83C00FFE736
:103AE00001208DF81F004FE004980130002846D0D7
:103AF000FFE7FEF799F90399401A0499884203D821
:103B0000FFE70498D0BBFFE79DF8160001280CD111
:103B1000FFE7069800684069BDF814100840401A95
:103B2000B0FA80F0400901900BE0069800688069C7
:103B3000BDF814100840401AB0FA80F04009019016
:103B4000FFE70198C8B9FFE7069900200863069AC5
:103B5000202182F83D10069981F83E000699086CF4
:103B600040F020000864FFE70699002081F83C003F
:103B7000FFE701208DF81F0006E0FFE7FFE764E79D
:103B800000208DF81F00FFE79DF81F0008B080BDE2
:103B900080B584B0029001910092FFE7029800681E
:103BA0004069C1B20020B0EBD11F3DD1FFE70298C0
:103BB000FFF7AEFD20B1FFE701208DF80F0037E0E1
:103BC0000198013078B3FFE7FEF72EF90099401A0B
:103BD0000199884203D8FFE7019818BBFFE70298D4
:103BE00000684069C1B20020B0EBD11F19D1FFE7D6
:103BF000029900200863029A202182F83D10029960
:103C000081F83E000299086C40F020000864FFE74C
:103C10000299002081F83C00FFE701208DF80F0099
:103C200006E0FFE7FFE7B9E700208DF80F00FFE7A8
:103C30009DF80F0004B080BD80B584B08DF80F00F2
:103C400040F27800C2F20000006802909DF80F0078
:103C500001F040FD0146029801F024FCB8B9FFE7ED
:103C600000F0FEF9FFE740F27800C2F200000068C1
:103C700001909DF80F0001F02DFD0146019801F023
:103C800011FC18B9FFE700F02DFDECE7FFE7FDF7A9
:103C9000CFFB00F059FA04B080BD000080B540F6BB
:103CA0000040C4F201000121FEF77AF8012811D189
:103CB000FFE700F00FFA0620FEF7EAFBFFE740F20D
:103CC0007000C2F20000007818B9FFE700F00AFDAA
:103CD000F5E7FFE780BD000080B594B000201390A9
:103CE000129011901090FFE741F21800C4F2020008
:103CF000016841F010010160006800F010000F90B1
:103D00000F98FFE7FFE741F21800C4F202000168D4
:103D100041F020010160006800F020000E900E9834
:103D2000FFE7FFE741F21800C4F20200016841F02A
:103D300004010160006800F004000D900D98FFE799
:103D4000FFE741F21800C4F20200016841F00801E7
:103D50000160006800F008000C900C98FFE741F249
:103D60000000C4F2010001904FF4005101220992B9
:103D7000FEF742F801984FF4004100220A92FEF744
:103D80003BF80A9A40F60000C4F201000390C021FB
:103D90000291FEF731F8099A40F60040C4F20100A2
:103DA00007904BF220310591FEF726F8019809990A
:103DB0004FF4204210921191129102210691139119
:103DC00010A90891FDF75CFE01980899099A0A9BD1
:103DD0004FF4804CCDF840C011931292FDF750FE85
:103DE00003980899099A0A9B4FF0230CCDF840C01C
:103DF00011931292FDF744FE03980899099A18232B
:103E000010930023C1F22103049311931292FDF742
:103E100037FEDDF808C00398069A0899099BCDF88B
:103E200040C0119312931392FDF72AFE049B07984A
:103E30000899099A109211931292FDF721FE0798A2
:103E40000899099A0A9B40F6024CCDF840C011939C
:103E50001292FDF715FEDDF814C0069A079808992E
:103E6000099BCDF840C0119312931392FDF708FE01
:103E70000620FEF70DFB09990A9A09200B90FEF720
:103E800011FB0B98FEF704FB0A20FEF701FB14B0B0
:103E900080BD000080B582B040F28400C2F2000014
:103EA000019045F20041C4F20001016048F2A061B6
:103EB000C0F20101416000218160C1604FF4804285
:103EC000026141618161C1610162FDF7B3FF18B117
:103ED000FFE7FDF7CBFCFFE702B080BD80B588B0FF
:103EE000002100910791069105910491039102919F
:103EF00040F2D800C2F20000019042F60042C4F243
:103F0000010202603F22426081604FF6FE72C26091
:103F1000016141618161FFF745F818B1FFE7FDF7E5
:103F2000A5FCFFE74FF48050049040F2D800C2F2A5
:103F3000000004A9FFF7C6F818B1FFE7FDF796FCEB
:103F4000FFE700200290039040F2D800C2F2000088
:103F500002A9FEF7B9FF18B1FFE7FDF787FCFFE7FD
:103F600008B080BD80B588B000210191079106910D
:103F7000059104910391029140F22010C2F20000D9
:103F800040F20042C4F2000202604FF6FF124260AB
:103F9000816040F2CF72C26001618161FFF702F877
:103FA00018B1FFE7FDF762FCFFE74FF48050049083
:103FB00040F22010C2F2000004A9FFF783F818B104
:103FC000FFE7FDF753FCFFE700200290039040F26B
:103FD0002010C2F2000002A9FEF776FF18B1FFE739
:103FE000FDF744FCFFE708B080BD0000FFE7FEE7F7
:103FF000FFE7FEE788B0079006910592079800F06A
:10400000070004900498C0F10700052803D3FFE7D8
:104010000420019004E00498C0F107000190FFE73C
:104020000198039004980430062803D8FFE7002085
:10403000009003E0049803380090FFE70098029096
:1040400006980399012202FA01F101390840029B06
:10405000984005999A40013A1140084308B07047CA
:1040600080B582B000F0F0FC00200190012100F04A
:1040700001FD45F62820C0F6000000F083FD019AFE
:1040800040F60040C4F201002021FDF7B5FE02B069
:1040900080BD000080B540F60000C4F20100802120
:1040A0000122FDF7A9FE80BD80B540F60000C4F2F4
:1040B000010040210122FDF79FFE80BD80B540F642
:1040C0000040C4F201004FF400410022FDF794FECD
:1040D00080BD000080B582B000F0B6FC00200190E9
:1040E000012100F0C7FC45F61920C0F6000000F0E1
:1040F00049FD019A40F60040C4F201004FF400511E
:10410000FDF77AFE02B080BD7047000082B00190DA
:10411000019840F20001C2F200010968C90844F6A2
:10412000D352C1F26202A1FB0221890948430090E7
:10413000FFE700BFFFE70098411E00910028F8D17B
:10414000FFE702B07047000080B500F07DFC002062
:10415000052100F08FFC45F66C20C0F6000000F051
:1041600011FD00F08FF880BD80B584B08DF80F0090
:104170008DF80E1040F27100C2F2000000780028A5
:104180007DD1FFE70A20FEF783F9FFE740F6000044
:10419000C4F201000221FDF703FE01282FD1FFE741
:1041A00000F0A0FA40F27800C2F20000006802902D
:1041B0009DF80F00053801F08DFA0146029801F0D4
:1041C00071F9D8B9FFE7FFF74BFFFFE740F278003E
:1041D000C2F20000006801909DF80F0001F07AFA29
:1041E0000146019801F05EF918B9FFE700F07AFA8C
:1041F000ECE7FDF71DF9FFF7A7FFFFE7C6E70A2089
:10420000FEF73CF940F28000C2F200000078C007DF
:1042100088B1FFE740F28000C2F200000078012878
:1042200009DBFFE700F00EFB40F26811C2F200016B
:104230000020087022E040F28000C2F20000007806
:10424000C00788B9FFE740F28000C2F200000078A2
:10425000012809DBFFE700F077FA40F26811C2F2AB
:1042600000010020087008E000F0ECFA40F268114C
:10427000C2F2000100200870FFE7FFE7FFE704B08B
:1042800080BD000080B582B041F20000C4F20100A0
:1042900000904FF4004101910122FDF7ADFD4FF474
:1042A000FA70FDF7E5FA009801990022FDF7A4FDE8
:1042B00002B080BD80B5FDF7BBF8FDF747F9FDF70B
:1042C00057F9FDF761F9FDF76BF980BD7047000004
:1042D00080B586B00590ADF81210002003900290D2
:1042E00001900090BDF81210009101900120029001
:1042F00005986946FDF7C4FB06B080BD80B586B061
:104300000590ADF8121000200390029001900090EB
:10431000BDF8120000900120019002200390059842
:104320006946FDF7ADFB06B080BD000080B582B0E8
:10433000009000980138B0F1807F03D3FFE701209F
:10434000019019E0009801384EF21401CEF20001FC
:1043500008604FF0FF300F2100F022FB4EF21801F1
:10436000CEF20001002008604EF21002CEF20002F0
:10437000072111600190FFE7019802B080BD0000A5
:1043800080B5FDF7EDFF80BD80B590B006A8009028
:104390002821FBF785FF00980023059304930393DE
:1043A00002930193012206924FF480310791089302
:1043B0000A9202220D920E914FF4C0110F91FEF756
:1043C00035FA18B1FFE7FDF751FAFFE70F2001902A
:1043D00002210291002003904FF480620492059024
:1043E00001A8FEF781F818B1FFE7FDF73FFAFFE7F4
:1043F00010B080BD7047000080B584B0FDF79AF919
:10440000014640F27200C2F20000017000780228FA
:104410001DD1FFE7FFF74EFF00F016FB3220FDF73E
:1044200027FA00200390052100F024FB45F6C51073
:10443000C0F6000000F0A6FB0399012000F01AFB73
:1044400045F65B20C0F6000000F09CFB3AE001203E
:104450000090FDF70DFACC200190FDF7A1F9442062
:10446000FDF79EF94FF44870FDF702FAFDF762F987
:104470000146009840F27202C2F200021170FDF78C
:10448000F7F90198FDF78CF9BE20FDF789F9FDF7E2
:1044900009F940F27601C2F2000102910870FDF7BD
:1044A00001F90246029840F27701C2F200010A7057
:1044B0000978007840EA012040F27401C2F200015C
:1044C0000880FFE740F27400C2F20000008801F0AB
:1044D00019F94FF0834101F007F804B080BD0000E6
:1044E00080B540F22010C2F20000FEF7B1FE80BDA0
:1044F00083B002900191029800680090029842F601
:104500000041C4F20101884215D0FFE70298B0F1E2
:10451000804F10D0FFE7029840F20041C4F2000142
:10452000884208D0FFE7029840F60001C4F200017B
:1045300088420AD1FFE7009820F0700000900198AF
:104540004168009808430090FFE7029842F6004156
:10455000C4F20101884215D0FFE70298B0F1804F04
:1045600010D0FFE7029840F20041C4F200018842F7
:1045700008D0FFE7029840F60001C4F2000188422B
:104580000AD1FFE7009820F4407000900198C168BC
:10459000009808430090FFE7009820F08000019900
:1045A0004969084300900098029908600198806862
:1045B0000299C8620198006802998862029842F6DE
:1045C0000041C4F20101884205D1FFE7019800696A
:1045D00002990863FFE702990120486103B0704720
:1045E00085B0049003910292019304988068009032
:1045F000009820F47F40009003980299019A41EAC4
:1046000002210143009808430090009804998860B3
:1046100005B0704783B002900191029880680090C5
:10462000009820F07000009001980099084340F035
:104630000700009000980299886003B0704700005E
:1046400085B00490039102920498006A0090049946
:10465000086A20F0010008620498806901900198BE
:1046600020F0F00001900299019840EA01100190B9
:10467000009820F00A0000900399009808430090E9
:1046800001980499886100980499086205B0704700
:1046900085B00490039102920498006A00900499F6
:1046A000086A20F01000086204988069019001985F
:1046B00020F4704001900299019840EA0130019085
:1046C000009820F0A00000900399009840EA0110A3
:1046D000009001980499886100980499086205B0D7
:1046E0007047000080B584B0FFF786FE0390FFF7A7
:1046F00083FE029003980021C4F2163100F0D2FE2E
:10470000E8B9FFE702980021C4F2163100F0CAFEB2
:10471000A8B9FFE7039940F27800C2F200000160F7
:10472000029940F27C02C2F200020192116000681C
:10473000FCF774FF01980068FCF792FFFFE704B0F4
:1047400080BD0000FFE7FEE780B584B045F6C310EA
:10475000C0F6000000780530C0B2FFF76DFA00F037
:1047600073F9002003900521009100F083F945F6CC
:10477000EF10C0F6000000F005FAFFF783FDFFF729
:104780009DFCFFF791FC03200290FCF715FFFCF75E
:10479000D3FE7820FCF710FFFCF7EAFE00F054F996
:1047A0000299039800F066F945F63720C0F600003C
:1047B00000F0E8F90A20FCF7FFFEFFF76FFA45F674
:1047C000C210C0F6000000780A30C0B2FFF734FA19
:1047D00000F03AF90099039800F04CF945F6F7100B
:1047E000C0F6000000F0CEF964200190FDF740F81B
:1047F000FFF764FCFFF74EFC0298FCF7DDFEFCF7C8
:1048000091FE3220FCF7D8FEFCF7B2FE00F01CF956
:104810000198FDF72DF80299039800F02BF945F661
:10482000E610C0F6000000F0ADF94FF4FA60FDF7B5
:104830001FF8039840F27101C2F20001087004B041
:1048400080BD000080B584B000F0FEF80020039029
:104850000521019100F00EF945F6EF10C0F60000B9
:1048600000F090F9FFF70EFDFFF728FCFFF71CFCA6
:1048700003200290FCF7A0FEFCF75EFE2D20FCF763
:104880009BFEFCF775FE00F0DFF80299039800F03C
:10489000F1F845F64120C0F6000000F073F906205B
:1048A000FCF78AFEFFF7FAF945F6C210C0F60000E1
:1048B0000078FFF7C1F900F0C7F80199039800F0FC
:1048C000D9F845F6F710C0F6000000F05BF9642057
:1048D000FCF7CEFFFFF7F2FBFFF7DCFB0298FCF7DB
:1048E0006BFEFCF71FFE0A20FCF766FEFCF740FE9D
:1048F00000F0AAF84FF47A70FCF7BAFF0299039817
:1049000000F0B8F845F6E610C0F6000000F03AF9FD
:104910004FF4FA60FCF7ACFF039840F27101C2F269
:104920000001087004B080BD81B08DF803009DF9CE
:104930000300002812D4FFE79DF9031001F01F02C5
:10494000012090404A094EF28011CEF2000141F858
:104950002200BFF34F8FBFF36F8FFFE701B07047A7
:1049600081B08DF803009DF9030000280ED4FFE705
:104970009DF9031001F01F02012090404A094EF2F8
:104980000011CEF2000141F82200FFE701B07047AC
:104990004EF60C50CEF200000068C0F302207047C3
:1049A00082B08DF8070000919DF9070000280AD415
:1049B000FFE7009800019DF907104EF20042CEF289
:1049C000000288540BE0009800019DF8071001F0E8
:1049D0000F014EF61452CEF200028854FFE702B0E7
:1049E0007047000083B00290029800F0070000902A
:1049F0004EF60C51CEF200010868019001984FF676
:104A0000FF02104001900198009A40EA0220002223
:104A1000C0F2FA52104301900198086003B0704749
:104A2000BFF34F8F4EF60C51CEF20001086800F430
:104A3000E0600422C0F2FA5210430860BFF34F8FC7
:104A4000FFE700BFFDE7000080B582B0802000F0E6
:104A50002DF800200190FFE70198452808DCFFE7CA
:104A6000202000F059F8FFE7019801300190F3E7AA
:104A700002B080BD80B584B003900291039801908C
:104A800020B1FFE70198012805D009E0029840F025
:104A90008000029004E0029840F0C0000290FFE71E
:104AA0009DF8080000F002F804B080BD80B584B025
:104AB0008DF80F009DF80F0000F0F0008DF80E004B
:104AC0009DF80F0000018DF80D009DF80E0040F0DC
:104AD0000C008DF809009DF80E0040F008008DF8DC
:104AE0000A009DF80D0040F00C008DF80B009DF8B9
:104AF0000D0040F008008DF80C0069466420086045
:104B000040F28400C2F200004E210DF1090204239C
:104B1000FDF7E2FA04B080BD80B584B08DF80F00D7
:104B20009DF80F0000F0F0008DF80E009DF80F00CA
:104B300000018DF80D009DF80E0040F00D008DF87D
:104B400009009DF80E0040F009008DF80A009DF85C
:104B50000D0040F00D008DF80B009DF80D0040F0A9
:104B600009008DF80C0069466420086040F284005A
:104B7000C2F200004E210DF109020423FDF7ACFA48
:104B800004B080BD80B582B00190FFE70198007845
:104B900038B1FFE70198411C01910078FFF7BCFF95
:104BA000F4E702B080BD000080B582B00020019023
:104BB000FDF7E4FBFFF7E8FBFFF78EF8FFF76AF974
:104BC000FFF78CF9FFF7CEF9FFE7FCF7FBFBFFF7E8
:104BD00059FBFFF763F814200090FFF72DF8FFF75B
:104BE000B3FA00990846FCF72DFC00990846FFF738
:104BF000BBFAEAE7FFF714FF5FEA400C08BF91F049
:104C0000000F4FEA8C234FEAC12243EA51514FEA89
:104C10001C5018BF00F5F0404FEA300018BF41F0BB
:104C200000415FEA6C5C00F02980BCF1FF3F08BFE7
:104C300040F080407047130C06BF12044FF0100C78
:104C40004FF0000C130E04BF12020CF1080C130FEE
:104C500004BF12010CF1040C930F04BF92000CF17D
:104C6000020CD30F04BF52000CF1010C11464FF09F
:104C70000002A0F11F00A0EB0C00704711F0004FE4
:104C800008BF704731F000413FF4D5AF0B0C06BFB1
:104C900009044FF0100C4FF0000C0B0E04BF09027A
:104CA0000CF1080C0B0F04BF09010CF1040C8B0F65
:104CB00004BF89000CF1020CCB0F04BF49000CF1BA
:104CC000010CCCF1200322FA03F341EA030102FABA
:104CD0000CF2A0EB0C0000F10100704723F07F47BD
:104CE00020F07F4C80EA030000F00040ACEB0703AB
:104CF00003F57C5303F1FF032DE9804909B44FEA22
:104D0000144324EA03484FEA154B25EA0B4E0FF2F1
:104D1000042606EB13273E7803FB0667C7F500075A
:104D200007FB06F64FEAD64606F102064FEA54376D
:104D300007FB066CCCF1005C4FEA1C472CEA074CE1
:104D40000CFB06F507FB06F404EB15464FEA961636
:104D500049085FEA320234BF00204FF000404FEABA
:104D6000D13706FB07FC4FEA1C4C0CFB0BF7D21BA0
:104D700003FB0CF761EB07010CFB0EF7B0EB0740F0
:104D800072EB17420CFB08F734BFA2EB0742B2EB01
:104D9000074261EB17414FEA0C444FEA910706FBCB
:104DA00007FC4FEA1C4C0CFB0BF7B0EBC74072EB57
:104DB000573203FB0CF734BFA2EBC742B2EBC7423A
:104DC00061EB57310CFB0EF7B0EBC70072EB57727B
:104DD0000CFB08F734BFA2EBC702B2EBC70261EBD2
:104DE00057714FEA816141EA92114FEA826242EAC9
:104DF00090124FEA806004EBCC04039F4FEAD13756
:104E000006FB07FC4FEA1C4C0CFB0BF7D21B03FB09
:104E10000CF761EB07010CFB0EF7B0EB074072EBF0
:104E200017420CFB08F734BFA2EB0742B2EB074274
:104E300061EB17414FEA8C5504EB9C244FEA910734
:104E400006FB07FC4FEA1C4C0CFB0BF7B0EBC74012
:104E500072EB573203FB0CF734BFA2EBC742B2EB45
:104E6000C74261EB57310CFB0EF7B0EBC70072EB9A
:104E700057720CFB08F734BFA2EBC702B2EBC702B4
:104E800061EB57714FEA816141EA92114FEA826208
:104E900042EA90124FEA806015EB4C2544F1000481
:104EA0004FEAD13706FB07FC4FEA1C4C0CFB0BF713
:104EB000D21B03FB0CF761EB07010CFB0EF7B0EB09
:104EC000074072EB17420CFB08F734BFA2EB074216
:104ED000B2EB074261EB17414FEA813141EA92415F
:104EE0004FEA823242EA90424FEA80304FEA0C7633
:104EF00015EB1C1544F1000448EA03434EEA0B4845
:104F00004FF0000EB2EB080C71EB030724BF6246B2
:104F100039464EEB0E0E4FF0000B0018524149413E
:104F20004BEB0B0BB2EB080C71EB03077BF1000BA7
:104F300024BF624639464EEB0E0E4FF0000B0018B0
:104F4000524149414BEB0B0BB2EB080C71EB0307E1
:104F50007BF1000B24BF624639464EEB0E0E51EA40
:104F6000020718BF46F0010616EB0E7655F1000257
:104F700054F1000103D5BDE88901BDE80088BDE812
:104F80008901BDE80048B619524141EB0101A3F186
:104F90000103704780807F7E7D7C7B7A797877768D
:104FA00076757473727171706F6E6E6D6C6C6B6A06
:104FB0006A696868676666656464636362616160A4
:104FC000605F5F5E5E5D5D5C5C5B5B5A5A59595821
:104FD000585757565655555554545353525252518B
:104FE000515050504F4F4F4E4E4D4D4D4C4C4C4BE1
:104FF0004B4B4A4A4A494949484848474747474628
:105000004646454545444444444343434342424263
:10501000424141419C46002B30D477002BD04FEACF
:1050200037071CB503B44FF010004FF01001BAF170
:10503000000F06D0BCF1000FDCBF40F0080040F0CC
:1050400008014FF000000FBCBDE810400BF1010B50
:10505000BBF1010F08BF5FEA170722BF12F101027F
:1050600011F101014FF0004143F1000300F0004055
:1050700043EA00007047F9D35708D0E746EA0646EE
:105080004FEA164613F1400F1FDD13F1200FDFBF6B
:1050900016430A46002120335B42BED0C3F12007ED
:1050A00046EA06464FEA164602FA07F746EA0706B8
:1050B00022FA03F2C3F1200701FA07F742EA0702D6
:1050C00021FA03F14FF00003A7E746EA020646EA99
:1050D00006464FEA164646EA0106BCBF46EA0646C1
:1050E000360C4FF000034FF000024FF0000194E740
:1050F0002DE9804C70B49A46934691E8380007C871
:1051000031EA400C48BF34EA430C03D5FFF7E6FD13
:10511000FFF780FFF0BCBDE8008C2DE9804C70B437
:105120009A46934691E8380007C810F0804F08BFB0
:1051300013F0804F03D100F005F8FFF76BFFF0BCD0
:10514000BDE8008C20F07F4723F07F4C80EA03000D
:1051500000F0004007EB0C03A3F57C53A3F1FE0322
:1051600092F0000F00F0B38095F0000F00F0778010
:105170002DE901494FEA114021EA00484FEA14465F
:1051800024EA064700FB06FC08FB06F607FB08F8C6
:1051900018EB06484CEB164C00FB07F718EB0748DA
:1051A0004CEB17404FEA124B22EA0B4E4FEA1546E2
:1051B00025EA06470BFB06FC0EFB06F607FB0EFE78
:1051C0001EEB064E4CEB164C0BFB07F71EEB074E87
:1051D0004CEB174B18EB0B0840F1000018EB0E0BD3
:1051E00058EB000840F100008F1A4FF000014FF01B
:1051F00000063CBFC943661B14BFB5EB040C00217D
:105200003CBFC943F61B4FEA174427EA04454FEA5F
:105210001C472CEA074C04FB076205FB07F70CFB55
:1052200005F616EB074642EB174204FB0CFC16EBA7
:105230000C4642EB1C421BEB060658EB02024141B6
:105240004EEA8E0E46EA9E0601D5BDE80189B619E2
:10525000524141EB0101A3F10103BDE801894FEA8D
:10526000144524EA05464FEA114721EA074C05FB9D
:1052700007F406FB07F70CFB06F111EB074144EBC3
:10528000174405FB0CFC11EB0C4144EB1C444FEAAA
:10529000124722EA074C05FB07F206FB07F70CFB57
:1052A00006F616EB074642EB174205FB0CFC16EB25
:1052B0000C4642EB1C456A1854F1000148BF704788
:1052C000B619524141EB0101A3F10103704795F07A
:1052D000000F37D04FEA114221EA02464FEA144745
:1052E00024EA074C02FB07F106FB07F70CFB06F468
:1052F00014EB074441EB174102FB0CFC14EB0C448C
:1053000041EB1C414FEA154725EA074C02FB07F524
:1053100006FB07F70CFB06F616EB074645EB1745B1
:1053200002FB0CFC16EB0C4645EB1C42121951F12A
:10533000000148BF7047B619524141EB0101A3F18A
:10534000010370474FEA144524EA05464FEA114726
:1053500021EA074C05FB07F106FB07F70CFB06F2F9
:1053600012EB074241EB174105FB0CFC12EB0C4220
:1053700051EB1C414FF0000648BF7047921841EBBB
:105380000101A3F101037047490050EAC12018BF91
:1053900004204A0D18BF40F0010040F2FF72B2EB4A
:1053A000515F08BF40F00200012808BF0520704788
:1053B00030380A2801D201207047002070470000D1
:1053C00010B500290AD00878002807D0054878448D
:1053D000FBF7AEFF002801D0002010BD0248784442
:1053E00010BD0000D2060000CA06000010B500295A
:1053F0000AD00878002807D005487844FBF798FFC2
:10540000002801D0002010BD0248784410BD0000E3
:10541000C2060000BA0600000808A0F500114FEA15
:105420003101704743004FEAD30C4FEA3C0C434034
:105430001FBF40070CF1605113F0FE4F70471CF086
:10544000006F03D10CF00041002070470CF00043C6
:1054500043EA507040EACC0010B500F0CFF900BF2D
:10546000000000924FEA0001FFF7D6BF4FF0004165
:10547000A1F500214FF00000704710B500F0F6F8DC
:105480000CBF0120002010BD10B500F0EFF814BFD4
:105490000120002010BD10B500F048F98CBF01209C
:1054A000002010BD10B500F041F92CBF01200020F4
:1054B00010BD10B500F06EF994BF0120002010BDA2
:1054C00010B500F067F934BF0120002010BD401076
:1054D00058BFC0F14040491058BFC1F1404181421E
:1054E000EFF30080704700004FF47F0C1CEAD012ED
:1054F0001EBF1CEAD11392EA0C0F93EA0C0F00F0C6
:10550000858090EA010F48BF42F4807240F4000C9D
:1055100041F400002CF07F4120F07F4000B5A2EB69
:10552000030281420FF2081CACEB504E9EF800E0E3
:10553000C0F100004FEA4E0E00FB0EFC38BF4900E0
:105540004FEA2C1C0CFB0EF34FEACE1E0EEB635EF3
:105550004FEA112C0EFB0CFC4FEAC1214FEA1C5301
:1055600000FB031102F5FA024FEA112C0EFB0CFCB2
:105570004FEA01314FEADC4C00FB0C1142EB2242B6
:10558000C14228BF09184CEB03335DF804EB10EB64
:10559000410143EBC250B2F57C0F38BF704729D5AB
:1055A00012F0F00F1CBF00F1C04000F00040704747
:1055B000008182838485868788898B8C8D8E8F91EC
:1055C0009293959697999A9C9D9FA0A2A3A5A7A810
:1055D000AAACAEB0B2B3B5B7B9BCBEC0C2C5C7C93C
:1055E000CCCED1D4D7D9DCDFE2E6E9ECF0F3F7FAA0
:1055F000FE0000004FEA400C0CF1807CBCF17E4FB5
:1056000028BF7047B0F1C04000F03EB90CEAD1139A
:1056100090EA010F48BF42F48072624538BF63458B
:1056200007D213F47F0F16D080EA010000F000408B
:10563000704710B500F0E2F8097EFC3E00F005B8B6
:1056400080EA010000F00040704780EA010000F0AD
:10565000004000F019B912F47F0F04BF02487047F0
:1056600080EA010000F010B90000C07F50EA010C90
:1056700000F113801CF5000F58BFBCF5000F01D4DA
:105680008842704707D710F5000F58BF11F5000F7B
:1056900015D488427047894270471CF5000F04D525
:1056A000BCF5000FF7D5814270474FF0807C1CEBB2
:1056B000400F38BF1CEB410F01D28142704710B53B
:1056C00000F09CF8922449004FF000504FF08051B8
:1056D000FFF7FDBE10F0004148BF4042B0FA80F332
:1056E00010FA03F2C3F19D030BD051EAC35101EB51
:1056F0001220530638BF704700F1010008BF20F0A8
:1057000001007047B0FA80F310FA03F2C3F19D0371
:105710000AD0D90501EB1220530638BF704700F1BB
:10572000010008BF20F001007047000050EA010CA2
:1057300000F113801CF5000F58BFBCF5000F01D419
:105740008842704707D710F5000F58BF11F5000FBA
:1057500015D488427047894270471CF5000F04D564
:10576000BCF5000FF7D5814270474FF0807C1CEBF1
:10577000400F38BF1CEB410F01D28142704710B57A
:1057800000F03CF8922449004FF080504FF0005157
:10579000FFF79DBE50EA010C00F113801CF5000FCD
:1057A00058BFBCF5000F01D48842704707D710F5E9
:1057B000000F58BF11F5000F15D488427047894279
:1057C00070471CF5000F04D5BCF5000FF7D58142DA
:1057D00070474FF0807C1CEB400F38BF1CEB410F33
:1057E00001D28142704710B500F008F892244900B8
:1057F0004FF000504FF08051FFF769BE0EF1020EDE
:105800002EF0030E5EF8044B244204D44FEA41020A
:10581000B2F17F4F11D84FEA4003B3F17F4F0CD85C
:105820000ED14FEAD07C0CEB4C0C0CF1020CB2F117
:105830007F4F08BF4CEBD17C04E04FF0080C01E037
:105840004FEAD17C0CEB4C0324FA03F404F0070478
:10585000B4F1040C06D20EEB840CBDE810404CF001
:10586000010C6047DFE80CF0070802024FF000402F
:10587000A0F5800010BD0846420018BFD2F180722A
:1058800088BF00F0004010BDFF2141EAD050C005A4
:105890007047FBF757B9FBF78BBA00000000000018
:1058A0000000000030313233343536373839414268
:1058B0004344454640305800303132333435363772
:1058C000383961626364656640307800040000081E
:1058D0000000000000000002000100001030313222
:1058E0003334353637383961626364656678700001
:1058F0003031323334353637383941424344454606
:105900005850000002400000000000A0000000000D
:1059100005400000000000C8000000000C4000002E
:105920000000409C00000000194000000020BCBEA8
:105930000000000034400000BFC91B8E00000004BE
:10594000B5400000504BCFD06607E2CF0100000009
:105950006C4100003E8251AADFEEA7340100000036
:10596000D9420000DCB5A0E23A301F97FFFFFFFFED
:10597000B4450000FD25A0C8E9A3C14FFFFFFFFF0C
:10598000FF3F00000000008000000000FF3F00001B
:105990000000008000000000000000000000000087
:1059A00001020304060708090000000001020304C5
:1059B00002030405060708090A0B0C0D0E0F101050
:1059C00001021414644552524F5220310045525284
:1059D0004F522032004552524F522033004D4F4417
:1059E000452053544400434F4D504C4554450057B7
:1059F000415348494E470052494E53494E47004D86
:105A00004F4445204849474800434C4F53452044A4
:105A10004F4F522D574153480046494C4C494E4731
:105A200020424F494C45520048454154494E472079
:105A3000424F494C45520044454C41592031305366
:105A40000044454C41592035530050524553532092
:105A50005020544F205354415254005052455353F8
:105A6000205220544F205354415254005245414437
:105A70005900423A252E316600543A252E316600EF
:105A8000D05B000800000020100000002801000882
:105A9000E05B0008100000206007000044010008DF
:105AA0001C00000043000000F8FFFFFF0C00000096
:105AB0000E0000000F0000002E000000100100008A
:105AC00043000000F8FFFFFF0040404040404040DE
:105AD00040404141414141404040404040404040C1
